:020000040800F2
:1000000010040020E100000825010008210100087B
:1000100000000000000000000000000000000000E0
:10002000000000000000000000000000290100089E
:10003000000000000000000027010008790100080E
:10004000F3000008F3000008F3000008F3000008C4
:10005000F3000008F3000008F3000008F3000008B4
:1000600000000000F3000008F3000008F30000089F
:10007000F3000008F3000008F3000008000000008F
:10008000F3000008F300000800000000F30000087F
:10009000F3000008F3000008F3000008F300000874
:1000A000F3000008F3000008F3000008F300000864
:1000B000F300000800000000000000000000000045
:1000C000F300000800000000F30000080348854624
:1000D00000F014F80048004705050008100400204F
:1000E0000448804704480047FEE7FEE7FEE7FEE7D6
:1000F000FEE7FEE781010008CD000008064C01255F
:10010000064E05E0E36807CC2B430C3C98471034BF
:10011000B442F7D3FFF7DEFFA8120008C8120008A8
:10012000FFE7FEE7704770477047000080B584B076
:1001300002900298401E000E18B1FFE701200390C4
:1001400011E00298401E0949086000200190C04358
:10015000032100F06BF8019805490860054A072162
:1001600011600390FFE7039804B080BD14E000E045
:1001700018E000E010E000E080B500F099F880BDE4
:1001800080B582B020490868012210430860FFE76B
:100190001D4800688007002801D4FFE7F8E71B49E5
:1001A00008681B4A1040086008681A4A1040086036
:1001B00015490868184A10400860184908680F2255
:1001C000904308601649086840F2031290430860A3
:1001D0000868012200921304984308600868D30756
:1001E000984308600F490868904308600E49002052
:1001F0000190086000F0E4FA00980199C00600F050
:100200009DF902B080BDC0460010024004100240BB
:100210000C00FF08FFFFC277FFFFF2FE2C10024028
:1002200030100240341002400810024070B582B015
:10023000024601A80270009100214056002816D401
:10024000FFE7002401A908570322D3431840174AA7
:10025000805809578C07E50EFF24AC40A043009C52
:10026000A401E4B2AC402043194088501AE001A92F
:1002700008780F24204008380322D34318400A4A44
:100280008058002549578D07EE0EFF25B540A8433D
:10029000009DAD01EDB2B540284321400839194019
:1002A0008850FFE702B070BD1CED00E000E400E004
:1002B0000448006828B1FFE702490868401E08604A
:1002C000FFE770470800002086B005900491039274
:1002D0000598006A01900598406A009002A90020E4
:1002E0000880FFE702A8008807281DD8FFE702A8BA
:1002F00001880398C840C00780B1FFE702A80188C1
:1003000089000F228A400199914301910499008844
:1003100080008140019808430190FFE7FFE70298C1
:10032000401C02A90880DDE702A908200880FFE739
:1003300002A800880F281FD8FFE702A801880398A9
:10034000C840C00790B1FFE702A8018889002039A2
:100350000F228A40009991430091049900888000FF
:1003600020388140009808430090FFE7FFE702989B
:10037000401C02A90880DBE70198059908620098F3
:100380000599486206B0704780B588B0844800F08F
:1003900067F90920C0060590022102910122069208
:1003A0004023019300F022F8019B0598002103915E
:1003B0000322049200F061F8019A05980699FFF76C
:1003C00083FF0299039A05988023079300F00EF8A3
:1003D0000399049A0598079B00F04FF80598069931
:1003E000079AFFF771FF08B080BDC04687B006903E
:1003F0000591049203930698006801900698C068DE
:10040000009002A900200880FFE702A800880F28BA
:100410002BD8FFE702A801880398C840C007F0B1B5
:10042000FFE702A801884900032213468B40019987
:1004300099430191059B018849008B40019919431B
:100440000191018849008A400099914300910499E3
:10045000008840008140009808430090FFE7FFE7D4
:100460000298401C02A90880CFE70198069908600D
:1004700000980699C86007B0704710B586B005901F
:1004800004A80170039202930078012806D1FFE7C7
:10049000029A059948681043486005E0029A059958
:1004A000486890434860FFE705988068009001A97C
:1004B00000200880FFE701A800880F281DD8FFE76B
:1004C00001A801880298C840C00780B1FFE701A8D1
:1004D0000188490003228A400099914300910399C1
:1004E000008840008140009808430090FFE7FFE744
:1004F0000198401C01A90880DDE7009805998860F3
:1005000006B010BD80B582B00020019000F096F8D2
:10051000084800F0A5F80848012242F200031146FD
:10052000FFF764FF00F050F900F018F800F0CEF883
:10053000FFE7FEE7130500000008004882B00190C5
:10054000009101980099034A11400843024908604C
:1005500002B0704780FFFF1F08ED00E080B500F09B
:1005600003F800F01FF880BD80B584B00C4800F09F
:1005700077F80920C0060290022100220192102380
:100580000393FFF733FF01990298039B0322FFF7C0
:1005900074FF0298039A0421FFF796FE04B080BD11
:1005A0001105000080B58CB040F2087000F058F8DA
:1005B0001E48049000F042FC05A8019000F050FE97
:1005C000019904981A4A0A80002203924A808A807C
:1005D000184B0793CA800A7300F0ACFC09A802907C
:1005E00000F0B9FB029A039904980123138051800B
:1005F0009180D1801181518100F06AF903990498AA
:100600000D4A00F02FFB03990498602200F0DAFAFB
:10061000039A0498114600F04FFB049800F0F1F89B
:10062000049800F07DFC0CB080BDC0460020004066
:100630000F0E00007F3E0000E02E000082B001900F
:10064000002000905C49086800900098F0229043D8
:1006500000900198009A1043086002B07047C046AD
:1006600081B001466846018000881F220146114082
:1006700001238B4081094D4A88581843885001B0A6
:100680007047C04681B001466846018000881F223D
:100690000146114001238B408109444A8858984300
:1006A000885001B07047C04681B00146684601805D
:1006B00000881F220146114001238B4081093B4ADB
:1006C00088581843885001B07047C04680B5FFF77E
:1006D0005BFE00F051FBFFE7FEE7000084B0002066
:1006E0000390029031490868012212041043086007
:1006F000FFE70398401C03902C480068012149043F
:1007000008400290FFE702990020019039B9FFE705
:1007100003982749401A411E88410190FFE701983C
:10072000C0070028E5D1FFE72048006880030028C3
:1007300002D4FFE7FFE7FEE71E49086802221043E4
:100740000522904308601C49009108680860086809
:100750000860086808600868184A1040086008685F
:100760001D22120410430860104908680122120675
:1007700010430860FFE70D4800688001002801D49D
:10078000FFE7F8E70C49086803229043086008680F
:10079000022210430860FFE70748006800070028AE
:1007A00001D4FFE7F8E704B07047C04600100240EC
:1007B000FFFF00000020024004100240FFFFC2774C
:1007C00080B5FFF78BFF80BD80B50848006840F218
:1007D000E831B0FBF1F0FFF7A9FC10B1FFE7FFE74C
:1007E000FEE70021C843FFF721FD80BD0000002087
:1007F00081B000900099086880229043086001B0A1
:10080000704781B00090009908688022104308600A
:1008100001B0704784B0039002A8018001A90A804A
:1008200000880090032841D800998A0001A0801810
:100830008746C04600F006B800F010B800F01CB8BB
:1008400000F026B8039988690C229043886101A8BA
:100850000288039988691043886128E003998869B0
:1008600040F600429043886101A800880202039983
:100870008869104388611AE00399C8690C22904383
:10088000C86101A802880399C8691043C8610EE0D5
:100890000399C86940F600429043C86101A80088E6
:1008A00002020399C8691043C86100E0FFE704B081
:1008B000704781B00090009900200880009A0121C3
:1008C0005180009988800099C88001B0704700006D
:1008D00084B0039002A80180019200880090032850
:1008E00000D964E100998A0001A080188746C046BB
:1008F00000F006B800F063B800F0CBB800F023B900
:100900000399086A012290430862039988690322C7
:1009100090438861019802880399086A104308622D
:100920000399086A02229043086201988288039919
:10093000086A1043086203989E4988420FD0FFE777
:1009400003989D4988420AD0FFE703989B49884253
:1009500005D0FFE703989A4988422FD1FFE7039912
:10096000086A042290430862019842880399086A41
:10097000104308620399086A0822904308620198AC
:10098000C2880399086A104308620399486840F2D4
:100990000012904348600198028903994868104307
:1009A00048600399486840F20022904348600198EB
:1009B00042890399486810434860FFE7F8E00399CB
:1009C000086A1022904308620399886940F2003255
:1009D000904388610198008802010399086A1043D6
:1009E00008620399086A202290430862019880886F
:1009F00002010399086A1043086203986D4988420E
:100A000033D1FFE70399086A4022904308620198B6
:100A1000408802010399086A104308620399086A32
:100A20008022904308620198C08802010399086AF5
:100A3000104308620399486840F2004290434860BE
:100A4000019800898200039948681043486003991F
:100A5000486840F60002904348600198408982004F
:100A60000399486810434860FFE703985249884259
:100A70000ED1FFE70399486840F200429043486076
:100A80000198008982000399486810434860FFE795
:100A90008EE00399086A40F20012904308620399BD
:100AA000C86903229043C861019800880202039933
:100AB000086A104308620399086A40F200229043D2
:100AC00008620198808802020399086A104308624C
:100AD00003983849884235D1FFE70399086A40F204
:100AE0000042904308620198408802020399086A14
:100AF000104308620399086A40F6000290430862B6
:100B00000198C08802020399086A10430862039999
:100B1000486841F200029043486001980089020150
:100B200003994868104348600399486842F20002FC
:100B30009043486001984089020103994868104336
:100B40004860FFE734E00399086A41F200029043ED
:100B500008620399C86940F200329043C861019865
:100B6000008802030399086A104308620399086A1F
:100B700042F20002904308620198808802030399C0
:100B8000086A104308620398DF4988420ED1FFE7E4
:100B90000399486844F20002904348600198008934
:100BA00082010399486810434860FFE700E0FFE7CF
:100BB00004B07047002C0140004001400044014057
:100BC0000048014084B0039002A8018001A90A8076
:100BD00000880090032841D800998A0001A080185D
:100BE0008746C04600F006B800F010B800F01CB808
:100BF00000F026B80399886970229043886101A8A3
:100C00000288039988691043886128E003998869FC
:100C100047F200029043886101A80088020203990C
:100C20008869104388611AE00399C869702290436B
:100C3000C86101A802880399C8691043C8610EE021
:100C40000399C86947F200029043C86101A800886F
:100C500002020399C8691043C86100E0FFE704B0CD
:100C60007047000084B0039002A8018001920088C0
:100C7000009003281CD800998A0001A0801887469C
:100C800000F006B800F008B800F00AB800F00CB8A0
:100C90000198039948630CE001980399886308E080
:100CA00001980399C86304E001980399086400E07F
:100CB000FFE704B07047000084B0039002A80180F1
:100CC00001A90A8000880090032841D800998A0071
:100CD00001A080188746C04600F006B800F010B8A2
:100CE00000F01CB800F026B80399886908229043E8
:100CF000886101A80288039988691043886128E007
:100D00000399886940F600029043886101A8008831
:100D1000020203998869104388611AE00399C8693F
:100D200008229043C86101A802880399C86910434A
:100D3000C8610EE00399C86940F600029043C8619B
:100D400001A8008802020399C8691043C86100E045
:100D5000FFE704B0704781B0009000990020088040
:100D600000994880009988800099C880009908817E
:100D70000099488101B0704710B590B02C48FFF73A
:100D80006FFCA648069000F059F809A8019000F001
:100D900067FA01990698274A0A80002204924A803D
:100DA0008A80254B0B93CA8000F0C4F80698FFF7A1
:100DB0001FFD0DA80290FFF7CEFF029A049B069834
:100DC00001210391118053809380D380138153813B
:100DD000FFF77EFD0399069840F6A072FFF742FFE9
:100DE000039906987022FFF7EDFE0399049A06987E
:100DF000FFF762FF07A80590FFF75BFD039B0499CF
:100E0000059A06980224148053809180D18000F0C6
:100E10000FF90698082100F0F9F90698502100F022
:100E2000E6F90698062100F00BFA10B010BDC04696
:100E3000010700000F0E00007F3E000080B58AB061
:100E40000990099808907549884226D0FFE70898CC
:100E50002C49884229D0FFE70898714988422CD054
:100E6000FFE708986C4988420FD0FFE708986D4962
:100E700088422BD0FFE708986B4988422FD0FFE7C4
:100E800008986A49884232D039E024480790FFF731
:100E90000BFC0798FFF7F6FB32E01F480690FFF7C0
:100EA00003FC0698FFF7EEFB2AE01A480590FFF7CF
:100EB000FBFB0598FFF7E6FB22E040F208400490B8
:100EC000FFF7F2FB0498FFF7DDFB19E040F210306A
:100ED0000390FFF7E9FB0398FFF7D4FB10E00C4801
:100EE0000290FFF7E1FB0298FFF7CCFB08E0074810
:100EF0000190FFF7D9FB0198FFF7C4FB00E0FFE783
:100F00000AB080BD00100040002C01401203000018
:100F10001103000004040000010400000B030000A2
:100F200081B000900099086801221043086001B068
:100F30007047000082B001900091009800880199EC
:100F4000886201983449884205D0FFE70198334907
:100F5000884212D1FFE70199086870229043086027
:100F600000984288019908681043086000988288B8
:100F70000199086810430860FFE7009880680199AC
:100F8000C86201982449884219D0FFE70198234993
:100F9000884214D0FFE70198214988420FD0FFE72B
:100FA0000198204988420AD0FFE701981E498842EB
:100FB00005D0FFE701981D4988420DD1FFE701994F
:100FC000086840F20032904308600098C288019996
:100FD000086810430860FFE701980F4988420FD066
:100FE000FFE701980F4988420AD0FFE701980E49B0
:100FF000884205D0FFE701980C49884205D1FFE7F8
:101000000098007B01990863FFE701994869012274
:101010001043486102B07047002C014000040040BA
:1010200000200040004001400044014000480140D1
:1010300080B584B0039002A80180019200880090DE
:10104000032800D9C9E000998A0001A080188746CA
:1010500000F006B800F030B800F05EB800F08BB8D1
:101060000399086A0122904308620399086A0A23D7
:1010700098430862019803880399086A1843086234
:1010800003998869032398438861019843880399E9
:1010900088691843886103998869F02398438861B7
:1010A0000198C088030103998869184388610399EE
:1010B000086A1043086291E00399086A102290437D
:1010C00008620399086AA02398430862019800887F
:1010D00003010399086A184308620399886940F27A
:1010E0000033984388610198408803020399886916
:1010F00018438861039988694FF200039843886117
:101100000198C0880303039988691843886103998B
:10111000086A1043086261E00399086A40F200120D
:10112000904308620399086A40F6002398430862D6
:101130000198008803020399086A1843086203991A
:10114000C86903239843C861019843880399C86913
:101150001843C8610399C869F0239843C86101988E
:10116000C08803010399C8691843C8610399086AD4
:101170001043086232E00399086A41F2000290438A
:1011800008620399086A4AF20003984308620198CA
:10119000008803030399086A184308620399C86921
:1011A00040F200339843C8610198408803020399D4
:1011B000C8691843C8610399C8694FF2000398438E
:1011C000C8610198C08803030399C8691843C861BE
:1011D0000399086A1043086200E0FFE7039802A938
:1011E0000988019A9288FFF715FB04B080BD82B090
:1011F0000190009101998868702290438860009A5C
:10120000019988681043886002B0704782B00190ED
:1012100000910098082806D1FFE701990868082284
:10122000104308600AE0009830B9FFE701990868A8
:1012300008229043086000E0FFE7FFE702B0704734
:1012400082B00190009101998868072290438860DC
:10125000009A019988681043886002B070470000C6
:1012600081B0009000990020088000994880009982
:101270008880009A034991600099C880009908739A
:1012800001B07047FFFF000002E008C8121F08C14C
:10129000002AFAD170477047002001E001C1121FF7
:1012A000002AFBD170470000C8120008000000208F
:1012B0000800000088120008D01200080800002072
:1012C000080400009812000800A24A040000000070
:04000005080000CD22
:00000001FF
